:10008F007D057C007F081201007F017E0012016D4B
:10009F007D027C007F071201007F017E0012016D3F
:1000AF00E4FDFC7F061201007F017E0012016D7DD1
:1000BF00017C007F051201007F017E0012016D7D22
:1000CF00037C007F041201007F017E0012016D7D11
:1000DF00017C007F031201007F017E0012016D7D04
:1000EF00047C007F021201007F017E0012016D80EF
:0100FF008F71
:10016D00E4FDFCC3ED9FEC9E500F79027BEFDBFEAF
:09017D00D9FC0DBD00010C80EA63
:010186002256
:0C0187000A083F065B4F666D7D077F6F26
:10010000EF14B40800505490011575F003A4C58392
:1001100025F0C5837302012D02013102013902016C
:100120003D020145020149020151020155C2A2806E
:1001300002D2A2C2A3C2A48022C2A28002D2A2D2B0
:10014000A3C2A48016C2A28002D2A2C2A3D2A4805B
:100150000AC2A28002D2A2D2A3D2A474082DF8E6C9
:0D016000F5807F017E0012016DE4F5802224
:03000000020003F8
:0C000300787FE4F6D8FD75811102004AF8
:10000F0002008FE493A3F8E493A34003F68001F278
:10001F0008DFF48029E493A3F85407240CC8C333F2
:10002F00C4540F4420C8834004F456800146F6DFC1
:10003F00E4800B0102040810204080900187E47EC9
:10004F00019360BCA3FF543F30E509541FFEE493B6
:10005F00A360010ECF54C025E060A840B8E493A37D
:10006F00FAE493A3F8E493A3C8C582C8CAC583CAA8
:10007F00F0A3C8C582C8CAC583CADFE9DEE780BE60
:01019300006B
:00000001FF
