:0C0190000A083F065B4F666D7D077F6F1D
:10008F00E4FDFC7F0112010912016C7D017C007FF0
:10009F000212010912016C7D027C007F031201091B
:1000AF0012016C7D037C007F0412010912016C7D2B
:1000BF00047C007F0512010912016C7D057C007F15
:1000CF000612010912016C7D067C007F07120109DF
:1000DF0012016C7D077C007F0812010912016C7DF3
:1000EF00087C007F0112010912016C7D097C007FE1
:0A00FF000212010912016C02008FC9
:10010900EF14B40800505490011E75F003A4C58380
:1001190025F0C5837302013602013A020142020148
:100129004602014E02015202015A02015EC2A28038
:1001390002D2A2C2A3C2A48022C2A28002D2A2D2A7
:10014900A3C2A48016C2A28002D2A2C2A3D2A48052
:100159000AC2A28002D2A2D2A3D2A474082DF8E6C0
:03016900F58022FC
:04016C007F017E0091
:10017000E4FDFCC3ED9FEC9E5015751208799A7B47
:0F0180007ADBFED9FCD512F90DBD00010C80E42D
:01018F00224D
:03000000020003F8
:0C000300787FE4F6D8FD75811202004AF7
:10000F0002008FE493A3F8E493A34003F68001F278
:10001F0008DFF48029E493A3F85407240CC8C333F2
:10002F00C4540F4420C8834004F456800146F6DFC1
:10003F00E4800B0102040810204080900190E47EC0
:10004F00019360BCA3FF543F30E509541FFEE493B6
:10005F00A360010ECF54C025E060A840B8E493A37D
:10006F00FAE493A3F8E493A3C8C582C8CAC583CAA8
:10007F00F0A3C8C582C8CAC583CADFE9DEE780BE60
:01019C000062
:00000001FF
