:0C016B000A083F065B4F666D7D077F6F42
:1000F8007D057C007F0812008F12014D7D027C0077
:100108007F0712008F12014DE4FDFC7F0612008F5D
:1001180012014D7D017C007F0512008F12014D7D7B
:10012800037C007F0412008F12014D7D017C007F4B
:100138000312008F12014D7D047C007F0212008F94
:0501480012014D80AB27
:10008F00EF14B4080050549000A475F003A4C58376
:10009F0025F0C583730200BC0200C00200C8020035
:1000AF00CC0200D40200D80200E00200E4C2A28019
:1000BF0002D2A2C2A3C2A48022C2A28002D2A2D222
:1000CF00A3C2A48016C2A28002D2A2C2A3D2A480CD
:1000DF000AC2A28002D2A2D2A3D2A474082DF8E63B
:0900EF00F58012014DE4F58022B8
:04014D007F017E00B0
:10015100E4FDFCC3ED9FEC9E500F79027BEFDBFECB
:09016100D9FC0DBD00010C80EA7F
:01016A002272
:03000000020003F8
:0C000300787FE4F6D8FD75811102004AF8
:10000F000200F8E493A3F8E493A34003F68001F20F
:10001F0008DFF48029E493A3F85407240CC8C333F2
:10002F00C4540F4420C8834004F456800146F6DFC1
:10003F00E4800B010204081020408090016BE47EE5
:10004F00019360BCA3FF543F30E509541FFEE493B6
:10005F00A360010ECF54C025E060A840B8E493A37D
:10006F00FAE493A3F8E493A3C8C582C8CAC583CAA8
:10007F00F0A3C8C582C8CAC583CADFE9DEE780BE60
:010177000087
:00000001FF
